:020000040800F2
:1000000078070020A9010008B1010008B301000829
:10001000B5010008B7010008B901000800000000A0
:10002000000000000000000000000000BB0100080C
:10003000BD01000800000000BF010008C101000868
:10004000C3010008C3010008C3010008C301000880
:10005000C3010008C3010008C3010008C301000870
:10006000C3010008C3010008C3010008C301000860
:10007000C3010008C3010008C3010008C301000850
:10008000C3010008C3010008C3010008C301000840
:10009000C3010008C3010008C3010008C301000830
:1000A000C3010008C3010008C3010008C301000820
:1000B000C3010008C301000800000000C3010008DC
:1000C000C30100080000000000000000C301000898
:1000D000000000003D3E0008C301000800000000D1
:1000E000C3010008C3010008C301000800F002F8C2
:1000F00000F04AF80AA090E8000C82448344AAF178
:100100000107DA4501D100F03FF8AFF2090EBAE875
:100110000F0013F0010F18BFFB1A43F0010318473B
:100120000475000024750000103A24BF78C878C117
:10013000FAD8520724BF30C830C144BF04680C60ED
:10014000704700000023002400250026103A28BF35
:1001500078C1FBD8520728BF30C148BF0B60704739
:10016000662907F02480642900F080800020704711
:100170001FB500F041FB04000020002105F0B8FE8F
:10018000E0601FBD10B510BD00F056FC1146FFF732
:10019000EFFF05F0E5F800F074FC03B4FFF7F2FFA1
:1001A00003BC04F0A1FA0000094880470948004751
:1001B000FEE7FEE7FEE7FEE7FEE7FEE7FEE7FEE717
:1001C000FEE7FEE704480549054A064B7047000074
:1001D000113A0008ED00000878010020780700209F
:1001E0007803002078030020704700000FB4044912
:1001F00010B503AA029800F0EDFA10BC5DF814FBEC
:10020000080000202DE9F0410E460446002020623F
:100210002046E168884730B3252805D0D4E901217C
:100220009047206A401CF2E7E16820460027884793
:10023000050018D0A5F14100192802D820354FF447
:1002400000673246294620462760FFF789FF40B104
:10025000012804D0F61D26F007060836D8E7361D1B
:10026000D6E72846DAE7206ABDE8F0812DE9F041BB
:100270000646002410687529314616A510D0AFF344
:100280000080002802DA404213A507E031688A079F
:1002900001D512A502E0490704D511A5012401E00A
:1002A000AFF3008000210A2206F1240709E0B0FB29
:1002B000F2FCB0FBF2F302FB1C003030785418461D
:1002C000491C0028F3D123462A463046BDE8F041B8
:1002D00000F017B8000000002D0000002B00000007
:1002E00020000000704770477047704710B500F05D
:1002F00087FA006810BD10B5044600F081FA04606A
:1003000010BD2DE9F0470D4699469246044600F18E
:1003100024080168880604D5E06921F010012160F5
:1003200000E00120A84201DD471B00E00027A16991
:100330007A1902EB0900081AA0612078C00602D4DD
:100340002046AFF30080002608E0D4E901211AF826
:1003500006009047206A401C761C20624E45F4DB64
:100360002078C0060AD52046AFF3008006E0D4E925
:10037000012130209047206A401C2062381EA7F1DE
:100380000107F4DC07E0D4E9012118F805009047E3
:10039000206A401C2062281EA5F10105F3DC2046DE
:1003A000AFF300802078000602D50220BDE8F08778
:1003B0000120FBE770472DE9FF4F0C461E464FF02A
:1003C000FF378BB0D2E90001DDF860800A908A46E1
:1003D000C1F30A5505B93D46002108464FF000001B
:1003E000BAF1000F00F4400005DA00EB80004FF492
:1003F000400101EA50004FEA9059B9F1010F00DDC8
:10040000B9460A9850EA4A000ED044F61050A5F2B8
:10041000FF3545432F14B8F1000F1ED07542291E39
:100420001EDDC9F100021CE0B8F1010F4FF0000021
:1004300001D0302103E0F24305E02154401CB042DA
:10044000FBDB30460022002121540B99C1F80880C3
:10045000C1E900200FB0BDE8F08FBD1B6D1CDEE7C9
:100460004A4600DA694206A800F06CFA06AB93E847
:10047000070003AB83E8070050460A9900F04AFBE7
:100480008DE80700A0F500501F3800900398002D5C
:100490000ADD42F21F014A460844002303A90390E3
:1004A000684600F0B3FD09E0A0F500504A461F3849
:1004B000002303A90390684600F0BDFD8DE8070006
:1004C0000004000C03D04FF0FF30410800E010465C
:1004D000B8F1000F03D00022009215461EE0751EF1
:1004E00005D400F091F9303262556D1EF9D5B3464E
:1004F0000122084302D000227F1C04E0207830282B
:1005000001D100227F1E002A099784D01DE0112D01
:1005100007DA00F079F9303262556D1C50EA0102B9
:10052000F5D1084302D00098C8B10EE00021681E42
:1005300005E0235C625C63542254401E491C8142E6
:10054000F7DBAB46A81B401E0990002004F80B0007
:100550000B98099AC0F80880C0E9002B7AE71126A9
:100560004FF0000857E72DE9F04F88460446D21DAA
:1005700022F0070191B0D1E90001CDE90A0103F0B1
:100580006EFD02460B98C00F01D02D2007E02068B9
:10059000810701D52B2002E0202101EAC000032AB7
:1005A000099001D0072A05DB03464146204600F0AA
:1005B00089F90BE12078800601D5E06900E006208A
:1005C000B8F1650F814606D0B8F1660F18D0B8F1C2
:1005D000670F70D131E00020B9F1110F009001DBFD
:1005E000112301E009F101030AAA01A90CA8FFF7F0
:1005F000E2FEDDE90C70002609F10105834647E0C3
:1006000001204B4600904FF000470AAA01A90CA810
:10061000FFF7D1FEDDE90DB00C995D46002610B95B
:1006200009F101000D18B9EB050003D4C0F1FF3644
:1006300009F10105A5EB09002BE0B9F1010F01DA81
:100640004FF001090020B9F1110F0090484601DD7B
:10065000112300E003460AAA01A90CA8FFF7ABFE8C
:10066000DDE90C704D4600268346207800070AD449
:10067000AB4500DA5D4601A8012D04DD411911F8F2
:10068000011C302907D04F4502DA17F1040F04DAB4
:10069000012082460FE06D1EEEE7002F02DCED1B0D
:1006A0003E4403E0781CA84200DD7D1CB81B00F12D
:1006B000010A4FF000472078000703D4AA4501DB68
:1006C0004FF0FF3A0021B7F1004F0DF143088DF8CC
:1006D000431024D002202B23002F01DA7F422D2348
:1006E0000A21021EA0F1010000DC5FB197FBF1FCC2
:1006F00097FBF1F201FB1C7C17460CF1300C08F85B
:1007000001CDEEE7A8F1010003702188090501D5AC
:10071000452100E06521A0F1010800F8011C0998BD
:100720000FA9A1EB0807FF1D00B10120411901EB42
:10073000EA70A1693844081A401EA0612078C006FA
:1007400002D42046AFF30080099828B1D4E90121F2
:100750009047206A401C20622078C00622D520469F
:10076000AFF300801EE0002E04DBB34502DD01A8DC
:10077000805D00E03020D4E901219047206A401CD0
:100780002062761CAAF101005FEA000A0AD100F09B
:1007900033F8C0680168405CD4E901219047206AC1
:1007A000401C2062281EA5F10105DCDC07E0D4E92D
:1007B000012118F8010B9047206A401C2062381E66
:1007C000A7F10107F3DC2046AFF30080032011B04E
:1007D00041E60000074B70B50D467B4400F05FF822
:1007E0000446284600F020F910B14FF0FF3070BDEC
:1007F000204670BD674B000000487047380100205C
:10080000004870471801002030B5B0F10A024FEAE5
:10081000900E71F100034EEA817EB0EB0E0061EBA9
:1008200091014FEA101E4EEA017E10EB0E0041EBE3
:1008300011114FEA102E4EEA016E10EB0E0041EB43
:1008400011214FEA104E4EEA014E10EB0E0041EB23
:100850001141401841F100014FEAD00040EA4170D7
:100860004FEAD10110EB80054FEA810444EA90740D
:1008700044EB01046D1944EB0404521BA3414FF0F7
:10088000000348BF0A3200D530BD401C41F10001D1
:1008900030BD000001694A1C02610878704700B54C
:1008A0008FB0CDE901310021059105497944CDE9A9
:1008B000031011466846FFF7A5FC0FB000BD00000D
:1008C000E5FFFFFF2DE9F0411F46044603260168BE
:1008D000072A01F4006004DB08B116A505E016A59F
:1008E00003E008B115A500E015A521F01000206077
:1008F000A069C01EA0610FB1401EA0612046AFF3E9
:1009000000804FB1D4E9012138469047206A401C4D
:100910002062C01C206206E0206AFAE7D4E90121C7
:1009200015F8010B9047761EF8D22046AFF30080F1
:10093000BDE8F0814E414E006E616E00494E4600AA
:10094000696E66002DE9F047814616468AB0354843
:1009500078440DC88DE80D0032487844801C03AC03
:100960000DC884E80D0041F69B300844372190FB08
:10097000F1F290FBF1F5A5F1800501FB12041B3C9F
:1009800002D56442012000E00020DFF898A08046F4
:100990000027FA44AAF1BE0A0EE0E0070AD0324668
:1009A000684607EB470101230AEB810100F043FB96
:1009B0008DE8070064107F1C002CEED1194F7F4496
:1009C000AE3F19E0E80715D007EB04100DF1180A47
:1009D00090E80E008AE80E00C068F04201D1981934
:1009E00008903246012306A903A800F024FB03ABBC
:1009F00083E807006D10641C002DE3D14FF0010364
:100A000032466946B8F1000F03A802D000F0FEFAA2
:100A100001E000F010FBC9E90001C9F808200AB0A4
:100A2000BDE8F087B86C0000007B00F080007047E4
:100A300000487047180100207546FFF7F9FFAE46E1
:100A400005006946534620F00700854618B020B5DA
:100A5000FFF7B8FBBDE820404FF000064FF000075D
:100A60004FF000084FF0000B21F00701AC46ACE856
:100A7000C009ACE8C009ACE8C009ACE8C0098D46C3
:100A8000704710B50446AFF300802046BDE8104023
:100A9000FFF783BB4FF0013C50F8042B51F8043BA7
:100AA0009A4221D1A2EB0C03934313EACC1317D142
:100AB00050F8042B51F8043B9A4215D1A2EB0C03D9
:100AC000934313EACC130BD150F8042B51F8043B99
:100AD0009A4209D1A2EB0C03934313EACC13DBD067
:100AE0004FF00000704700BFD01A01BAB1FA81F18F
:100AF00001F0180122FA01F0CB40C1F12001DBB274
:100B0000C0B2C01A2CFA01F3D11A914311EAC311F1
:100B1000E6D170475FEA400C08BF91F0000F4FEA42
:100B20008C234FEAC12243EA51514FEA1C5018BFAF
:100B300000F5F0404FEA300018BF41F000415FEA95
:100B40006C5C00F02980BCF1FF3F08BF40F08040A2
:100B50007047130C06BF12044FF0100C4FF0000C3E
:100B6000130E04BF12020CF1080C130F04BF120184
:100B70000CF1040C930F04BF92000CF1020CD30F84
:100B800004BF52000CF1010C11464FF00002A0F11D
:100B90001F00A0EB0C00704711F0004F08BF70471A
:100BA00031F000413FF4D5AF0B0C06BF09044FF004
:100BB000100C4FF0000C0B0E04BF09020CF1080CD6
:100BC0000B0F04BF09010CF1040C8B0F04BF89004B
:100BD0000CF1020CCB0F04BF49000CF1010CCCF15D
:100BE0002003A0EB0C0022FA03F302FA0CF241EA14
:100BF000030100F10100704720F07F4C80EA030000
:100C000023F07F47ACEB070303F57C5300F0004073
:100C100003F1FF032DE980494FEA154B09B44FEA70
:100C2000144325EA0B4E24EA03480FF2042606EB90
:100C3000132749083E785FEA320203FB0667C7F5CF
:100C4000000707FB06F64FEA54374FEAD64606F18F
:100C5000020607FB066CCCF1005C4FEA1C472CEA4D
:100C6000074C07FB06F40CFB06F504EB15464FEAB0
:100C7000961634BF00204FF000404FEAD13706FBF4
:100C800007FC4FEA1C4C0CFB0BF7D21B03FB0CF7C9
:100C900061EB07010CFB0EF7B0EB074072EB17425C
:100CA0000CFB08F734BFA2EB0742B2EB074261EB43
:100CB00017414FEA0C444FEA910706FB07FC4FEA45
:100CC0001C4C0CFB0BF7B0EBC74072EB573203FB2D
:100CD0000CF734BFA2EBC742B2EBC74261EB57310E
:100CE0000CFB0EF7B0EBC70072EB57720CFB08F76A
:100CF00034BFA2EBC702B2EBC70261EB5771039F8F
:100D00004FEA816141EA921104EBCC044FEAD137FA
:100D10004FEA826206FB07FC42EA90124FEA8060CB
:100D20004FEA1C4C0CFB0BF7D21B03FB0CF761EBDF
:100D300007010CFB0EF7B0EB074072EB17420CFB00
:100D400008F734BFA2EB0742B2EB074261EB174151
:100D50004FEA8C554FEA910704EB9C2406FB07FCF5
:100D60004FEA1C4C0CFB0BF7B0EBC74072EB573251
:100D700003FB0CF734BFA2EBC742B2EBC74261EBF7
:100D800057310CFB0EF7B0EBC70072EB57720CFB40
:100D900008F734BFA2EBC702B2EBC70261EB577191
:100DA00015EB4C254FEA816141EA92114FEA8262CC
:100DB0004FEAD13742EA901206FB07FC44F10004E7
:100DC0004FEA80604FEA1C4C0CFB0BF7D21B03FB75
:100DD0000CF761EB07010CFB0EF7B0EB074072EB71
:100DE00017420CFB08F734BFA2EB0742B2EB0742F5
:100DF00061EB174115EB1C154FEA813141EA924135
:100E00004FEA823242EA90424FEA80304FEA0C7653
:100E100044F1000448EA03434EEA0B484FF0000E49
:100E2000B2EB080C71EB030724BF624639464EEB68
:100E30000E0E4FF0000B0018524149414BEB0B0BCB
:100E4000B2EB080C71EB03077BF1000B24BF624689
:100E500039464EEB0E0E4FF0000B0018524149413F
:100E60004BEB0B0BB2EB080C71EB03077BF1000BA8
:100E700024BF624639464EEB0E0E51EA020718BFF8
:100E800046F0010616EB0E7655F1000254F1000112
:100E900003D5BDE88901BDE80088BDE88901BDE84A
:100EA0000048B619524141EB0101A3F1010370471B
:100EB00080807F7E7D7C7B7A797877767675747397
:100EC000727171706F6E6E6D6C6C6B6A6A69686856
:100ED000676666656464636362616160605F5F5EEC
:100EE0005E5D5D5C5C5B5B5A5A5959585857575662
:100EF00056555555545453535252525151505050C7
:100F00004F4F4F4E4E4D4D4D4C4C4C4B4B4B4A4A18
:100F10004A4949494848484747474746464645455C
:100F20004544444444434343434242424241414195
:100F3000002B9C4630D477002BD01CB54FEA3707E6
:100F400003B44FF010004FF01001BAF1000F06D0BB
:100F5000BCF1000FDCBF40F0080040F008014FF08A
:100F600000000FBCBDE810400BF1010BBBF1010FFD
:100F700008BF5FEA170722BF12F1010211F1010158
:100F80004FF0004143F1000300F0004043EA00004D
:100F90007047F9D35708D0E746EA064613F1400FE9
:100FA0004FEA16461FDD13F1200FDFBF16430A4636
:100FB000002120335B42BED0C3F1200746EA06463B
:100FC00002FA07F74FEA164646EA0706C3F120077A
:100FD00022FA03F201FA07F721FA03F14FF00003B6
:100FE00042EA0702A7E746EA020646EA06464FEA51
:100FF000164646EA0106BCBF46EA0646360C4FF0E6
:1010000000034FF000024FF0000194E72DE9804CFF
:101010009A46934670B491E8380007C831EA400C0C
:1010200048BF34EA430C03D5FFF7E6FDFFF780FF26
:10103000F0BCBDE8008C2DE9804C9A46934670B414
:1010400091E8380007C810F0804F08BF13F0804FB8
:1010500003D100F005F8FFF76BFFF0BCBDE8008C92
:1010600020F07F4780EA030023F07F4C07EB0C035E
:10107000A3F57C5300F00040A3F1FE0392F0000FB3
:1010800000F0B38095F0000F00F077802DE9014962
:101090004FEA11404FEA144621EA004800FB06FCE3
:1010A00024EA064708FB06F607FB08F800FB07F7EB
:1010B00018EB06484CEB164C4FEA124B18EB07485E
:1010C0004FEA15464CEB174022EA0B4E0BFB06FC91
:1010D00025EA06470EFB06F607FB0EFE0BFB07F79D
:1010E0001EEB064E4CEB164C4FF000061EEB074E67
:1010F0004CEB174B18EB0B0840F1000018EB0E0BF4
:1011000058EB000840F100008F1A4FF000013CBF7F
:10111000C943661B14BFB5EB040C00213CBFC94397
:10112000F61B4FEA17444EEA8E0E27EA04454FEAB3
:101130001C4704FB07622CEA074C05FB07F70CFB76
:1011400005F604FB0CFC16EB074642EB174216EBC8
:101150000C4642EB1C421BEB060658EB02024141D7
:1011600046EA9E0601D5BDE80189B619524141EB18
:101170000101A3F10103BDE801894FEA14454FEADB
:10118000114724EA054621EA074C05FB07F406FB54
:1011900007F70CFB06F105FB0CFC11EB074144EBD8
:1011A00017444FEA124711EB0C4144EB1C4422EA6E
:1011B000074C05FB07F206FB07F70CFB06F605FBE1
:1011C0000CFC16EB074642EB174216EB0C4642EBC3
:1011D0001C456A1854F1000148BF7047B6195241C6
:1011E00041EB0101A3F10103704795F0000F37D0E7
:1011F0004FEA11424FEA144721EA024624EA074C1B
:1012000002FB07F106FB07F70CFB06F402FB0CFCE4
:1012100014EB074441EB17414FEA154714EB0C441C
:1012200041EB1C4125EA074C02FB07F506FB07F7DB
:101230000CFB06F602FB0CFC16EB074645EB1745CC
:1012400016EB0C4645EB1C42121951F1000148BF48
:101250007047B619524141EB0101A3F101037047F8
:101260004FEA14454FEA114724EA054621EA074CA4
:1012700005FB07F106FB07F70CFB06F24FF0000633
:1012800005FB0CFC12EB074241EB174112EB0C4241
:1012900051EB1C4148BF7047921841EB0101A3F18B
:1012A0000103704710B5044684B93221104802F09A
:1012B0006CFD4FF4FA7004F01FF896210C4802F010
:1012C00064FD4FF47A7004F017F80FE0FA21084833
:1012D00002F05BFD4FF4FA7004F00EF8962104481A
:1012E00002F053FD4FF47A7004F006F810BD0000D0
:1012F000002C01400FB59DB000201A901B901120CA
:1013000019900A20189000201790169015901490AC
:1013100013901290119010902098082805DB2098C7
:10132000083820900120109008E02098082805DA5D
:101330002098C0F108002090002010901E9820B145
:101340001F9810B11E9880281DD11E9810B11E98AC
:10135000802804D11F9805F057FD179038E01F989A
:10136000B0BB1E98802804DA1E9805F04DFD17903A
:101370002EE01E9880282BDD1E9880380F9005F0F7
:1013800043FD179024E01F9805F06BF800224FF002
:101390008043CDE9060103F0EBFFCDE90A011E9879
:1013A00005F05FF800224FF08043CDE9060103F01D
:1013B000DFFFCDE90801DDE90A2304F0E1FDCDE915
:1013C0000C0104F011FDCDE90E0104F0A7FD17900A
:1013D000179805F0BDFB02460B46CDE90E01FEA0B5
:1013E000FEF704FF209805F03CF800224FF0804300
:1013F000CDE9060103F0BCFFCDE90A01179805F01D
:10140000A7FB00224FF08043CDE9060103F0B0FFB7
:10141000CDE90801DDE90A2304F0B2FDCDE90C01B4
:1014200004F0E2FCCDE90E0104F078FD169020985E
:1014300005F0EAFC0690179905F024FC079005F0EA
:1014400087FBCDE9080103F0C7FB0022E74BCDE99C
:101450000A0105F06DF8E64AE64BCDE90C0104F00F
:101460004BFECDE90E0104F059FD1590189805F0DA
:10147000E3FC0F90199805F0DFFC0D90169905F02C
:1014800093FB0E900F9905F0EBFD21D2199805F012
:10149000D3FC0F90189805F0CFFC0D90169905F02D
:1014A00083FB0E900F9905F0DBFD11D2DDE91810DA
:1014B00008440E9005F0A8FC0F90169905F0D0FD99
:1014C00006D201208DF86E00CBA0FEF78FFE05E05E
:1014D00000208DF86E00CCA0FEF788FE9DF86E000F
:1014E00000287DDD1E9880287BDA1E9810B9002028
:1014F000149027E01F9810B9C748149022E01F9855
:1015000005F082FC06901E9805F07EFC0590069979
:1015100005F0B8FB079005F01BFBCDE9080103F0CF
:101520005BFB0022B14BCDE90A0105F001F8B04A9E
:10153000B04BCDE90C0104F0DFFDCDE90E0104F064
:10154000EDFC1490149805F003FBB44AB44BCDE9BC
:101550000A0104F0EDFF0022B24BCDE90C0105F0C9
:101560001BF9CDE90E0104F04FFFC0B28DF8680001
:1015700018984000039005F047FC0490169905F078
:10158000A3FC069019984043029005F03DFC04909E
:101590001699084605F098FC029018984043009070
:1015A00005F032FC0190029905F0FEFA03900499CF
:1015B00005F088FD0590069905F064FB079005F09D
:1015C000C7FACDE9080103F091F80022874BCDE975
:1015D0000A0104F0ADFF864A864BCDE90C0101E01B
:1015E00023E2D5E004F088FDCDE90E0104F096FC7D
:1015F00013901898400019994843049005F004FC92
:1016000006901699084605F05FFC0490189800FBB8
:1016100000F1199800FB0010029005F0F5FB039013
:10162000049905F04FFD0590069905F02BFB0790F6
:1016300005F08EFACDE9080103F058F800226B4B53
:10164000CDE90A0104F074FF694A6A4BCDE90C0147
:1016500004F052FDCDE90E0104F060FC12901098E8
:10166000012805D11599139805F09EFA139006E00C
:10167000109820B91599139805F024FD1390664928
:10168000139805F0EDFC04D30021139805F0E8FB56
:1016900006D200208DF86E0063A0FEF7A7FD05E2DC
:1016A0005D48139905F00EFD099005F051FA624A64
:1016B000624BCDE90A0104F03BFF0022604BCDE90B
:1016C0000C0104F05DFCCDE90E0104F09DFEC0B2FA
:1016D0008DF86900119801281AD14F49129805F028
:1016E000F1FC099005F034FA564A574BCDE90A014E
:1016F00004F01EFF0022554BCDE90C0104F040FC24
:10170000CDE90E0104F080FEC0B28DF86A00CCE194
:101710004149129805F0A4FC1AD83F49129805F0E7
:10172000D1FC099005F014FA464A474BCDE90A016D
:1017300004F0FEFE0022454BCDE90C0104F020FC34
:10174000CDE90E0104F060FEC0B28DF86A00ACE194
:101750003149129805F084FBD9D22F48129905F02F
:10176000B1FC099005F0F4F9364A374BCDE90A018E
:1017700004F0DEFE0022354BCDE90C0105F00CF83B
:10178000CDE90E0104F040FEC0B28DF86A008CE194
:101790001E988028BBDB1E9880381E901E9810B9BA
:1017A0000020149064E01F9810B91B4814905FE06B
:1017B0001F9805F029FB06901E9805F025FB059063
:1017C000069905F05FFA079005F0C2F9CDE9080126
:1017D00003F002FA00223BE06879706F74656E7561
:1017E00073652069732025660D0A0000008066403D
:1017F0004AD8124DFB210940636865636B207375FD
:1018000063636573730D0A00636865636B206572BB
:10181000726F720A0A0000000000B442F6285C8F62
:10182000C2F5E83F00006640616E676C6531206577
:1018300072726F720D0A0000E17A14AE47E1F03F58
:1018400000804B407D3F355EBA49E83F0000544080
:101850009C4BCDE90A0104F06BFE9B4A9B4BCDE902
:101860000C0104F049FCCDE90E0104F057FB149083
:10187000149805F06DF9964A964BCDE90A0104F0EB
:1018800057FE0022944BCDE90C0104F079FBCDE921
:101890000E0104F0B9FDC0B28DF868001898400040
:1018A000039005F0B1FA0490169905F00DFB06902F
:1018B00019984043029005F0A7FA0490169908463B
:1018C00005F002FB029018984043009005F09CFA46
:1018D0000190029905F068F90390049905F0F2FB74
:1018E0000590069905F0CEF9079005F031F9CDE99C
:1018F000080102F0FBFE0022724BCDE90A0104F060
:1019000017FE714A714BCDE90C0104F0F5FBCDE9EE
:101910000E0104F003FB13901898400019994843F6
:10192000049005F071FA06901699084605F0CCFA75
:101930000490189800FB00F1199800FB0010029029
:1019400005F062FA0390049905F0BCFB0590069936
:1019500005F098F9079005F0FBF8CDE9080102F0D1
:10196000C5FE0022574BCDE90A0104F0E1FD564ABD
:10197000564BCDE90C0104F0BFFBCDE90E0104F09C
:10198000CDFA12901098012805D11599139805F0F9
:101990000BF9139006E0109820B91599139805F0EB
:1019A00091FB13904D49139805F05AFB06D2002085
:1019B0008DF86E004AA0FEF719FC77E047481399AE
:1019C00005F080FB099005F0C3F84A4A4A4BCDE97F
:1019D0000A0104F0ADFD0022484BCDE90C0104F0F2
:1019E000CFFACDE90E0104F00FFDC0B28DF8690009
:1019F000119801281AD13949129805F063FB099012
:101A000005F0A6F83E4A3F4BCDE90A0104F090FDEF
:101A100000223D4BCDE90C0104F0B2FACDE90E01F4
:101A200004F0F2FCC0B28DF86A003EE02B49129837
:101A300005F016FB1AD82949129805F043FB0990C6
:101A400005F086F82E4A2F4BCDE90A0104F070FD0F
:101A500000222D4BCDE90C0104F092FACDE90E01E4
:101A600004F0D2FCC0B28DF86A001EE01B49129847
:101A700005F0F6F919D21948129905F023FB0990DF
:101A800005F066F81E4A1F4BCDE90A0104F050FD2F
:101A900000221D4BCDE90C0104F07EFECDE90E01C4
:101AA00004F0B2FCC0B28DF86A0000BF1A991D980C
:101AB0000160BDF86C1081809DF86E10817121B0BD
:101AC00000BD0000008066404AD8124DFB2109404D
:101AD000F6285C8FC2F5E83F000066400000B44283
:101AE000616E676C6531206572726F72203E2039BD
:101AF000300D0A00E17A14AE47E1F03F00804B4020
:101B00007D3F355EBA49E83F000054402DE9F04F73
:101B10008FB004460D461646994600200D900A9057
:101B2000099008900D9064E00D9805F011F80746B3
:101B3000344A354B04F0FCFC0022344BCDE9000163
:101B400004F0DAFACDE9020103F066FBCDE9060103
:101B5000484604F086FCCDE90401DDE9062304F0E3
:101B6000E7FC824604F020FC20440A900D9804F023
:101B7000EFFF0746234A244B04F0DAFC0022234BF4
:101B8000CDE9000104F0B8FA824604F0DDF8CDE9B1
:101B90000401484604F065FCCDE90201DDE90423B7
:101BA00004F0C6FCCDE9060104F0FEFB30440890C9
:101BB00009951998009006A8DDE908320A9900F005
:101BC00063FFDDE90601CDE90B019DF83200012834
:101BD00004D11898C1B20BA800F022FE0CA0DDE9D8
:101BE00008320A99FEF702FB15490D9804F0DCFF54
:101BF0000D9014490D9805F033F995D30FB0BDE859
:101C0000F08F00004AD8124DFB2109400080664049
:101C10007461726765745F78203D2025642C2074A0
:101C200061726765745F79203D2025642C207461A2
:101C3000726765745F7A203D2025640D0A000000FC
:101C40000000A0400000B44330B585B0002400205F
:101C500004900090019002900390744800788DF8F1
:101C600010009DF81000C0F1AF0000906F48407860
:101C70008DF811009DF81100C0F1370001906B48FC
:101C800080788DF812009DF81200C0F19600029045
:101C90006648C0788DF813009DF81300C0F19600D7
:101CA000039000BF11E05DF82400002801DB01462D
:101CB00000E04142A94207DD5DF82400002801DB75
:101CC000014600E041420D46641C042CEBDB00247D
:101CD0009EE0009800280CDB0098CE2809DA0098D6
:101CE000A04217DD9DF81000401CC0B28DF8100016
:101CF00010E0009800280DDA009810F1CE0F09DDF1
:101D000000984042A04205DD9DF81000401EC0B280
:101D10008DF81000019800280CDB0198652809DA7D
:101D20000198A04217DD9DF81100401CC0B28DF84B
:101D3000110010E0019800280DDA019810F1650FEC
:101D400009DD01984042A04205DD9DF81100401ECA
:101D5000C0B28DF81100029800280CDB0298BF2851
:101D600009DA0298A04217DD9DF81200401CC0B2AB
:101D70008DF8120010E0029800280DDA029810F198
:101D8000BF0F09DD02984042A04205DD9DF8120018
:101D9000401EC0B28DF81200039800280CDB039897
:101DA000B52809DA0398A04217DD9DF81300401CFE
:101DB000C0B28DF8130010E0039800280DDA0398E4
:101DC00010F1B40F09DD03984042A04205DD9DF8F3
:101DD0001300401EC0B28DF813009DF810104FF094
:101DE000804001F0D2FF9DF81110114801F0D1FFA1
:101DF0009DF812104FF0804001F0C9FF9DF81310BC
:101E00004FF0804001F0C5FF142003F075FA641C08
:101E1000AC42FFF65EAF002404E004A8005D034975
:101E20000855641C042CF8DB05B030BD0000002010
:101E3000002C01402DE9F04F8DB0804689460024EA
:101E400000200C90089009900A900B90B8F1800F38
:101E500033DDA8F18008484604F0D6FF01904046E3
:101E600004F0D2FF0090019904F00CFF834604F0C7
:101E70006FFECDE9020102F0AFFE00229D4BCDE9DD
:101E8000040104F055FB9C4A9C4BCDE9060104F08B
:101E900033F905460E469A4A9A4B2846314604F0D5
:101EA00047FB0022984BCDE9040104F069F8CDE925
:101EB000060104F079FA074630E0484604F0A4FF32
:101EC0000190404604F0A0FF0090019904F0DAFE72
:101ED000834604F03DFECDE9020102F07DFE0022C2
:101EE000844BCDE9040104F023FB834A834BCDE905
:101EF000060104F001F905460E46814A814B284649
:101F0000314604F015FB00227F4BCDE9040104F0BB
:101F100043FCCDE9060104F047FA07467B48007808
:101F20008DF830009DF83000381A089077484078D6
:101F30008DF831009DF83100C0F1370009907348E9
:101F400080788DF832009DF83200C0F196000A903A
:101F50006E48C0788DF833009DF83300C0F19600CC
:101F60000B90002413E008A951F82400002801DB9D
:101F7000014600E04142514508DD08A951F824001E
:101F8000002801DB014600E041428A46641C042C23
:101F9000E9DB00249EE0089800280CDB0898CE2896
:101FA00009DA0898A04217DD9DF83000401CC0B245
:101FB0008DF8300010E0089800280DDA089810F12C
:101FC000CE0F09DD08984042A04205DD9DF83000A3
:101FD000401EC0B28DF83000099800280CDB09982B
:101FE000652809DA0998A04217DD9DF83100401CE8
:101FF000C0B28DF8310010E0099800280DDA099878
:1020000010F1650F09DD09984042A04205DD9DF8F9
:102010003100401EC0B28DF831000A9800280CDB58
:102020000A98BF2809DA0A98A04217DD9DF8320005
:10203000401CC0B28DF8320010E00A9800280DDA7A
:102040000A9810F1BF0F09DD0A984042A04205DD51
:102050009DF83200401EC0B28DF832000B98002867
:102060000CDB0B98B52809DA0B98A04217DD9DF818
:102070003300401CC0B28DF8330010E00B980028EC
:102080000DDA0B9810F1B40F09DD0B984042A04215
:1020900005DD9DF83300401EC0B28DF833009DF879
:1020A00030104FF0804001F070FE9DF8311018485C
:1020B00001F06FFE9DF832104FF0804001F067FE96
:1020C0009DF833104FF0804001F063FE142003F0C0
:1020D00013F9641C5445FFF65EAF002404E00CA81D
:1020E000005D0A490855641C042CF8DB0DB0BDE8FE
:1020F000F08F0000008066404AD8124DFB21094055
:10210000F6285C8FC2F5E83F000066400000002022
:10211000002C01402DE9F041024600250026002058
:1021200000230024002791F803C00CF00F0591F85C
:1021300003C00CF0100CBCF1000F03D091F802C0EA
:102140004CEA050591F800C0BCF1000F31D01468CD
:1021500000202BE04FF0010C0CFA00F3B1F800C0A6
:102160000CEA03069E4220D183004FF00F0C0CFABC
:1021700003F7BC4305FA03FC4CEA040491F803C0DE
:10218000BCF1280F06D14FF0010C0CFA00FCC2F88C
:1021900014C00AE091F803C0BCF1480F05D14FF01C
:1021A000010C0CFA00FCC2F810C0401C0828D1D366
:1021B0001460B1F800C0BCF1FF0F34DD546800209A
:1021C0002EE000F1080C4FF0010808FA0CF3B1F80A
:1021D00000C00CEA03069E4221D183004FF00F0C91
:1021E0000CFA03F7BC4305FA03FC4CEA040491F82B
:1021F00003C0BCF1280F05D100F1080C08FA0CF857
:10220000C2F8148091F803C0BCF1480F07D100F167
:10221000080C4FF0010808FA0CF8C2F81080401CB6
:102220000828CED35460BDE8F0810AB1016100E016
:10223000416170472DE9F04186B006460F46904651
:102240001D460C9CFCB939463046FFF7F3FD0120D2
:1022500043463A463146009002A800F015FCDDE9FD
:102260000201CDE904019DF81600012803D1E9B26D
:1022700004A800F0D5FAE0B2FFF714F8394630466A
:10228000FFF7D8FD20E0022C1ED139463046FFF77B
:10229000D1FD012043463A463146009002A800F0A5
:1022A000F3FBDDE90201CDE904019DF816000128E8
:1022B00003D1E9B204A800F0B3FAE0B2FEF7F2FFEE
:1022C00039463046FFF7B6FD06B0BDE8F0810000A4
:1022D00070B5002100230F22C47804B3154C246884
:1022E00004F4E064C4F5E064210AC1F10403CA40C7
:1022F000447804FA03F184781440214309010E4C18
:102300000678A155047804F01F050124AC40057837
:102310006D11AD0005F1E025C5F8004109E0047834
:1023200004F01F050124AC40044D0678761145F8F1
:10233000264070BD0CED00E000E400E080E100E02C
:1023400002490143024A1160704700000000FA058B
:102350000CED00E01CB540F2CF7040F2CF2101231C
:10236000034ACDE900109115024802F09DFE1CBD04
:10237000002C0140000801401CB540F2CF7040F233
:10238000CF210423034ACDE90010D114024802F002
:102390008BFE1CBD002C0140000801401CB540F222
:1023A000CF7040F2CF2101239A07CDE900101946E2
:1023B000014802F079FE1CBD000801401CB540F246
:1023C000CF7040F2CF2103234FF08042CDE90010BF
:1023D0000421024802F068FE1CBD00000008014014
:1023E0001CB540F2CF7040F2CF2104231A07CDE98B
:1023F00000100821014802F057FE1CBD00080140F2
:1024000029B1064AD2690243044BDA6104E0034A67
:10241000D2698243014BDA6170470000001002402C
:1024200029B1064A92690243044B9A6104E0034AC7
:1024300092698243014B9A6170470000001002408C
:1024400030B500210022002400232D4D6D6805F0D9
:102450000C0121B1042905D0082923D105E0294D1B
:10246000056022E0274D05601FE0254D6D6805F4ED
:102470007012234D6D6805F48034022505EB9242FD
:102480001CB9214D554305600BE01D4D6D6805F4E9
:1024900000351DB11C4D5543056002E0194D5543F3
:1024A000056002E0174D056000BF00BF144D6D6868
:1024B00005F0F0010909154D6B5C0568DD404560CC
:1024C0000F4D6D6805F4E061090A104D6B5C4568BD
:1024D000DD4085600A4D6D6805F46051C90A0B4DF9
:1024E0006B5C4568DD40C560054D6D6805F4404195
:1024F000890B074D6B5CC568B5FBF3F5056130BD15
:102500000010024000127A0000093D001200002075
:10251000220000202DE9F04786B04FF0000A5B480A
:10252000008800F4004000287ED0584890F80090C1
:10253000494657A0FDF75AFEB9F1080F75D2DFE8FA
:1025400009F0960496960B37538254480078132866
:1025500001D1FFF779FB90E050480078122826D18E
:102560004E484078012806D002280BD003280FD00F
:1025700004281BD113E0494881784FF0804001F0D6
:1025800004FC13E045488178454801F002FC0DE069
:10259000424881784FF0804001F0F9FB06E03F4867
:1025A00081784FF0804001F0F4FB00BF00BF64E091
:1025B0003A480078122816D1384845788678C77886
:1025C00004793B463246294602A8FEF793FEDDE930
:1025D0000201CDE904019DF81600012803D121462E
:1025E00004A800F01DF948E02C480078122829D1F1
:1025F0002A4845788678C778047990F80580B8F13C
:10260000010F17D13B463246294602A8CDF800807B
:1026100000F03AFADDE90201CDE904019DF8160067
:1026200001280FD1214601E02BE020E004A800F0B2
:10263000F7F807E023463A4631462846CDF80080B1
:10264000FFF7F8FD19E01548007812280ED113485D
:1026500045788678C77844798079CDE900400F487D
:1026600003793A4631462846FFF750FA05E04FF025
:10267000FF3A0CA0FDF7BAFD00BF00BF00200349E0
:1026800008800AF0FF0006B0BDE8F0870C000020CB
:102690006C656E2069732025640D0A0050000020CF
:1026A000002C014053657269616C207472616E7315
:1026B0006D697373696F6E206572726F720D0A00B7
:1026C00010B5AF20194908703720487096208870DF
:1026D000C8700871F0204871AF214FF0804001F0C0
:1026E00054FB642002F008FE3721114801F051FB31
:1026F000642002F001FE96214FF0804001F047FB7C
:10270000642002F0F9FD96214FF0804001F041FB7A
:10271000642002F0F1FD9621054801F036FB00200F
:102720000449087408604860886010BD00000020FB
:10273000002C01403C00002010B500F001F810BD55
:102740000CB50020019000903348006840F48030C0
:102750003149086000BF3048006800F40030009044
:102760000198401C0190009818B90198B0F5A06F2D
:10277000F1D12948006800F4003010B10120009028
:1027800001E0002000900098012843D12348006810
:1027900040F01000214908600846006820F003005E
:1027A00008600846006840F0020008601A48406867
:1027B000194948600846406848600846406840F447
:1027C000806048600846406820F47C1048600846F5
:1027D000406840F4E81048600846006840F08070A7
:1027E000086000BF0C48006800F000700028F9D0B5
:1027F0000948406820F003000749486008464068DF
:1028000040F00200486000BF0348406800F00C0040
:102810000828F9D10CBD0000001002400020024041
:10282000F0B585B004460E460025002004900090C7
:102830000190029003902078FF2802DDFF20207095
:1028400007E02078322804DA2078002801DD3220E1
:1028500020706078962802DD9620607007E060782E
:10286000372804DA6078002801DD37206070A0780E
:10287000F02802DDF020A07007E0A078322804DA0A
:10288000A078002801DD3220A070E078F02802DD79
:10289000F020E07007E0E078322804DAE0780028E1
:1028A00001DD3220E070207808B9AF202070607818
:1028B00008B937206070A07808B99620A070E07839
:1028C00008B99620E07000251AE06D48405D04A923
:1028D0004855605D495D401A4DF825005DF82500BA
:1028E000002801DB014600E04142B94207DD5DF806
:1028F0002500002801DB014600E041420F466D1C27
:10290000042DE2DB0025ACE0009800280CDB0098E9
:10291000CE2809DA0098A84217DD9DF81000401C67
:10292000C0B28DF8100010E0009800280DDA009871
:1029300010F1CE0F09DD00984042A84205DD9DF858
:102940001000401EC0B28DF81000019800280CDB6A
:102950000198652809DA0198A84217DD9DF8110051
:10296000401CC0B28DF8110010E0019800280DDA6B
:10297000019810F1650F09DD01984042A84205DD7C
:102980009DF81100401EC0B28DF811000298002879
:102990000CDB0298BF2809DA0298A84217DD9DF8DF
:1029A0001200401CC0B28DF8120010E002980028FE
:1029B0000DDA029810F1BF0F09DD02984042A842DB
:1029C00005DD9DF81200401EC0B28DF8120003987C
:1029D00000280CDB0398B52809DA0398A84217DD14
:1029E0009DF81300401CC0B28DF8130010E003984E
:1029F00000280DDA039810F1B40F09DD0398404266
:102A0000A84205DD9DF81300401EC0B28DF81300EA
:102A10009DF810104FF0804001F0B7F99DF81110AB
:102A2000184801F0B6F99DF812104FF0804001F0FF
:102A3000AEF99DF813104FF0804001F0AAF9012E75
:102A400003D10A2002F058FC0AE0022E03D1142020
:102A500002F052FC04E0032E02D1322002F04CFCC2
:102A60006D1CBD42FFF650AF002504E004A8405D98
:102A7000034948556D1C042DF8DB05B0F0BD00007E
:102A800000000020002C01400FB5D1B000204E9076
:102A90004F900021FE484891499046914790FD484B
:102AA0004491459020912191229123911F911E9153
:102AB0005298802806DB5298A0F1800152910121A2
:102AC0001E9101E000201E905498C11F549152980D
:102AD00003F0C7FCCDE91C01539803F0C2FCCDE91B
:102AE0001A01DDE91C2302F087F9CDE93201DDE9A5
:102AF000320102F091FBCDE91C01529803F0B1FCC8
:102B0000CDE91A01DDE91C2303F0F6FA4D914C9052
:102B1000529820B9539803F0A4FC4D914C905498CE
:102B200003F09FFC4B914A90002138913991FFE2CC
:102B3000D94ADA4BDDE9380103F0FAFCCDE9380176
:102B400000204FF08041479B469A03F0F1FCCDE90D
:102B50001601459B449A03F0EBFCCDE91A01DDE92F
:102B6000380102F059FBCDE9120100204FF08041FD
:102B70004B9B4A9A03F0DCFCCDE90E01499B489A35
:102B800003F0D6FCCDE91001DDE9122303F0D0FCFF
:102B9000CDE91601DDE9380103F0D6F8CDE90E01E3
:102BA00000204FF080414D9B4C9A03F0C1FCCDE9D1
:102BB0000A01499B489A03F0BBFCCDE90C01DDE911
:102BC0000E2303F0B5FC00224FF08043CDE9120143
:102BD0004599449802F0CCFB00224FF08043CDE9A8
:102BE0000E014799469802F0C3FB00224FF0804344
:102BF000CDE90A014999489802F0BAFB00224FF04A
:102C00008043CDE906014B994A9802F0B1FB0022BE
:102C10004FF08043CDE902014D994C9802F0A8FB9A
:102C2000CDE90001DDE9022303F0AAF9CDE90401B1
:102C3000DDE9062303F0A4F9CDE90801DDE90A2363
:102C400003F09CFECDE90C01DDE90E2303F096FEB6
:102C5000CDE91001DDE9122303F090FECDE9140166
:102C6000DDE9162303F08AFECDE91801DDE91A2318
:102C700003F042FACDE91C0101F038FDCDE9340141
:102C8000DDE9340103F060F8CDE91801DDE9380130
:102C900002F0C2FACDE91401459B449A03F048FCC6
:102CA000CDE91601DDE9182303F042FCCDE91C0152
:102CB000DDE9340102F0B0FACDE91401DDE93801B3
:102CC00003F042F8CDE91001459B449A03F030FC33
:102CD000CDE91201DDE9142303F02AFCCDE9180146
:102CE000DDE9380103F030F8CDE91401479B469A3D
:102CF00003F01EFCCDE91601DDE9182303F040F9CD
:102D0000CDE91A01DDE91C2303F03AF94391429021
:102D1000DDE9340103F018F8CDE91801DDE93801E7
:102D200003F012F8CDE91401459B449A03F000FC2E
:102D3000CDE91601DDE9182303F0FAFBCDE91C010A
:102D4000DDE9340102F068FACDE91401DDE938016A
:102D500002F062FACDE91001459B449A03F0E8FBCA
:102D6000CDE91201DDE9142303F0E2FBCDE91801FE
:102D7000DDE9380102F050FACDE91401479B469A8B
:102D800003F0D6FBCDE91601DDE9182303F0F8F8CE
:102D9000CDE91A01DDE91C2303F0F0FD41914090DB
:102DA000DDE9380102F0D0FFCDE91A01499B489ACC
:102DB00003F0BEFBCDE91C014D9B4C9A03F0ECFCEB
:102DC000CDE93E0100224FF080434399429802F042
:102DD000CFFA00224FF08043CDE91A014199409883
:102DE00002F0C6FACDE91801DDE91A2303F0C8F8AC
:102DF00000222B4BCDE91C0102F0BAFACDE93A01D1
:102E0000DDE93A234399429803F076F9CDE91C01B4
:102E100001F0AAFDCDE93C01DDE93A23DDE93E01FF
:102E200003F06AF9CDE91A0101F09EFDCDE91C011C
:102E3000DDE93C2303F0A2FDCDE93601DDE93201F5
:102E400002F0EAF9CDE91C01DDE93623DDE93801BC
:102E500003F096F8CDE91001DDE9342303F090F892
:102E6000CDE9120102F070FFCDE91401459B449AAF
:102E700003F05EFBCDE91801DDE93623DDE9380119
:102E800003F07EF8CDE90E0102F05EFF0AE00000DB
:102E900000002440000028401839359D46DF913F4E
:102EA0000000E03FCDE91001479B469A03F040FB4C
:102EB000CDE91401DDE9380102F046FFCDE910014A
:102EC000499B489A03F034FBCDE91201DDE9142354
:102ED00003F056F8CDE91601DDE9182303F050F8A8
:102EE000CDE91A01DDE91C2303F022FBCDE928011D
:102EF000DDE9320102F028FFCDE91C01DDE93623CE
:102F0000DDE9380103F03CF8CDE91001DDE93423B7
:102F100003F036F8CDE9120102F016FFCDE91401F5
:102F2000459B449A03F004FBCDE91801DDE9362303
:102F3000DDE9380103F024F8CDE90E0102F004FFC9
:102F4000CDE91001479B469A03F0F2FACDE914014E
:102F5000DDE9380102F0F8FECDE91001499B489AFD
:102F600003F0E6FACDE91201DDE9142303F008F8D5
:102F7000CDE91601DDE9182303F002F8CDE91A01C5
:102F8000DDE91C2303F0D4FACDE92601DDE936237F
:102F9000DDE9380102F0F4FFCDE91401DDE9342365
:102FA00002F0EEFFCDE9160102F036F9CDE9180185
:102FB000459B449A03F0BCFACDE91C01DDE93623B8
:102FC000DDE9380102F0DCFFCDE9120102F024F95D
:102FD000CDE91401479B469A03F0AAFACDE91801FE
:102FE000DDE9380102F018F9CDE91401499B489A4E
:102FF00003F09EFACDE91601DDE9182302F0C0FFC7
:10300000CDE91A01DDE91C2302F0BAFFCDE9240164
:10301000FD4AFE4BDDE9380103F08AFACDE93801BB
:10302000F94AFA4BDDE9360103F082FACDE93601BF
:10303000F54AF64BDDE9340103F07AFACDE93401C3
:103040005298401C03F00DFACDE91C01DDE928235C
:1030500003F06CFB64D25299491E08461B9103F0A1
:1030600000FACDE91C01DDE9282303F025FA57D247
:103070005398401C03F0F5F9CDE91C01DDE9262346
:1030800003F054FB4CD25398411E08461B9103F0A9
:10309000E8F9CDE91C01DDE9262303F00DFA3FD262
:1030A0005498401C03F0DDF9CDE91C01DDE924232F
:1030B00003F03CFB34D25498401E1B9003F0D1F92E
:1030C000CDE91C01DDE9242303F0F6F928D2569856
:1030D000012825D100221346DDE9340103F026FB47
:1030E0001DD2DDE92E0102460B46CDE91C01DDE9CA
:1030F000360103F01BFB13D8DDE93202CDE92A02C9
:10310000DDE93801CDE92C01DDE93601CDE92E01FB
:10311000DDE93401CDE9300101201F9000E010E02D
:103120000022BB4BDDE9380102F02AFFCDE938016E
:103130000022B84BDDE9380103F0BEF9FFF4F8AC2A
:1031400000BF00203890399002E3B34AB34BDDE969
:10315000380103F0EDF9CDE9380100204FF080414E
:10316000479B469A03F0E4F9CDE91601459B449A42
:1031700003F0DEF9CDE91A01DDE9380102F04CF87F
:10318000CDE9120100204FF080414B9B4A9A03F099
:10319000CFF9CDE90E01499B489A03F0C9F9CDE971
:1031A0001001DDE9122303F0C3F9CDE91601DDE9D1
:1031B000380102F0C9FDCDE90E0100204FF0804139
:1031C0004D9B4C9A03F0B4F9CDE90A01499B489A0A
:1031D00003F0AEF9CDE90C01DDE90E2303F0A8F907
:1031E00000224FF08043CDE912014599449802F046
:1031F000BFF800224FF08043CDE90E014799469871
:1032000002F0B6F800224FF08043CDE90A01499957
:10321000489802F0ADF800224FF08043CDE9060156
:103220004B994A9802F0A4F800224FF08043CDE970
:1032300002014D994C9802F09BF8CDE90001DDE9BF
:10324000022302F09DFECDE90401DDE9062302F030
:1032500097FECDE90801DDE90A2303F08FFBCDE9F4
:103260000C01DDE90E2303F089FBCDE91001DDE956
:10327000122303F083FBCDE91401DDE9162303F0EB
:103280007DFBCDE91801DDE91A2302F035FFCDE918
:103290001C0101F02BFACDE93401DDE9340102F023
:1032A00053FDCDE91801DDE9380101F0B5FFCDE9A5
:1032B0001401459B449A03F03BF9CDE91601DDE981
:1032C000182303F035F9CDE91C01DDE9340101F0E3
:1032D000A3FFCDE91401DDE9380102F035FDCDE9A8
:1032E0001001459B449A03F023F9CDE91201DDE971
:1032F000142303F01DF9CDE91801DDE9380102F0CE
:1033000023FDCDE91401479B469A03F011F9CDE95D
:103310001601DDE9182302F033FECDE91A01DDE9DB
:103320001C2302F02DFE43914290DDE9340102F0AE
:103330000BFDCDE91801DDE9380102F005FDCDE90D
:103340001401459B449A03F0F3F8CDE91601DDE939
:10335000182303F0EDF8CDE91C01DDE9340101F09B
:103360005BFFCDE91401DDE9380101F055FFCDE93E
:103370001001459B449A03F0DBF8CDE91201DDE929
:10338000142303F0D5F8CDE91801DDE9380101F087
:1033900043FFCDE91401479B469A03F0C9F8CDE9F4
:1033A0001601DDE9182302F0EBFDCDE91A01DDE994
:1033B0001C2303F0E3FA41914090DDE9380102F06B
:1033C000C3FCCDE91A01499B489A03F0B1F8CDE955
:1033D0001C014D9B4C9A03F0DFF9CDE93E01002220
:1033E0004FF080434399429801F0C2FF00224FF012
:1033F0008043CDE91A014199409801F0B9FFCDE928
:103400001801DDE91A230BE0AA9F9622DCA54C40A7
:103410000000F03F008056401839359D46DF913F4F
:1034200002F0AEFD0022FE4BCDE91C0101F0A0FF31
:10343000CDE93A01DDE93A234399429802F05CFE76
:10344000CDE91C0101F090FACDE93C01DDE93A2318
:10345000DDE93E0102F050FECDE91A0101F084FAE7
:10346000CDE91C01DDE93C2303F088FA81F000413D
:10347000CDE93601DDE9320101F0CEFECDE91C01D6
:10348000DDE93623DDE9380102F07AFDCDE91001EE
:10349000DDE9342302F074FDCDE9120102F054FCA1
:1034A000CDE91401459B449A03F042F8CDE9180197
:1034B000DDE93623DDE9380102F062FDCDE90E01D8
:1034C00002F042FCCDE91001479B469A03F030F828
:1034D000CDE91401DDE9380102F036FCCDE9100137
:1034E000499B489A03F024F8CDE91201DDE9142341
:1034F00002F046FDCDE91601DDE9182302F040FD9A
:10350000CDE91A01DDE91C2303F012F8CDE9280109
:10351000DDE9320102F018FCCDE91C01DDE93623BA
:10352000DDE9380102F02CFDCDE91001DDE934239D
:1035300002F026FDCDE9120102F006FCCDE91401EE
:10354000459B449A02F0F4FFCDE91801DDE93623EA
:10355000DDE9380102F014FDCDE90E0102F0F4FBC3
:10356000CDE91001479B469A02F0E2FFCDE9140134
:10357000DDE9380102F0E8FBCDE91001499B489AEA
:1035800002F0D6FFCDE91201DDE9142302F0F8FCC8
:10359000CDE91601DDE9182302F0F2FCCDE91A01AC
:1035A000DDE91C2302F0C4FFCDE92601DDE9362365
:1035B000DDE9380102F0E4FCCDE91401DDE9342352
:1035C00002F0DEFCCDE9160101F026FECDE918017E
:1035D000459B449A02F0ACFFCDE91C01DDE936239E
:1035E000DDE9380102F0CCFCCDE9120101F014FE56
:1035F000CDE91401479B469A02F09AFFCDE91801E4
:10360000DDE9380101F008FECDE91401499B489A33
:1036100002F08EFFCDE91601DDE9182302F0B0FCBF
:10362000CDE91A01DDE91C2302F0AAFCCDE9240151
:103630007C4A7D4BDDE9380102F07AFFCDE93801A3
:10364000784A794BDDE9360102F072FFCDE93601A7
:10365000744A754BDDE9340102F06AFFCDE93401AB
:103660005298401C02F0FDFECDE91C01DDE9282343
:1036700003F05CF864D25299491E08461B9102F08F
:10368000F0FECDE91C01DDE9282302F015FF57D239
:103690005398401C02F0E5FECDE91C01DDE926232C
:1036A00003F044F84CD25398401E1B9002F0D9FE10
:1036B000CDE91C01DDE9262302F0FEFE40D254983C
:1036C000401C02F0CEFECDE91C01DDE9242303F00D
:1036D0002DF835D25498411E08461B9102F0C1FEC8
:1036E000CDE91C01DDE9242302F0E6FE28D256983C
:1036F000012825D100221346DDE9340103F016F834
:103700001DD2DDE92E0102460B46CDE91C01DDE9A3
:10371000360103F00BF813D8DDE93201CDE92A01B7
:10372000DDE93801CDE92C01DDE93601CDE92E01D5
:10373000DDE93401CDE9300101201F9000E010E007
:1037400000223A4BDDE9380102F01AFCCDE93801DC
:103750000022374BDDE9380102F0AEFEFFF4F5AC94
:1037600000BFDDE92A01CDE932012E4A2E4BDDE909
:10377000320102F0DDFECDE93201DDE92C01CDE9B7
:103780003801DDE92E01CDE93601DDE93012CDE960
:1037900034121E98012807D100202649DDE9322382
:1037A00003F0ECF8CDE93201DDE93401CDE90401A3
:1037B000DDE93601CDE90201DDE93801CDE900019D
:1037C0001DA0DDE93223FCF711FD1F9830B9002060
:1037D0008DF83E011FA0FCF709FD02E001208DF8E5
:1037E0003E010022124BDDE9320102F065FE46D8AF
:1037F00000200F49DDE9322303F0C0F8CDE91C01B8
:1038000002F0D2FD209020990846179102F029FE7F
:10381000124A134BCDE9180102F08AFE002221E082
:103820000000E03FAA9F9622DCA54C400000F03F3C
:1038300000805640008066406A303A25662C6A3126
:103840003A25662C6A323A25662C6A333A25660D8B
:103850000A0000006572726F720D0A00F6285C8F14
:10386000C2F5E83F524BCDE91A0102F095FFCDE9D0
:103870001C0102F0C9FDC0B28DF8380129E0002218
:103880004C4BDDE9320102F051FF22D20022494BBC
:10389000DDE9320103F072F8CDE91C0102F084FD8C
:1038A000209020990846179102F0DBFD424A434BD5
:1038B000CDE9180102F03CFE00223D4BCDE91A0192
:1038C00002F05EFBCDE91C0102F09EFDC0B28DF856
:1038D000380100221346DDE9380102F027FF1DD828
:1038E000DDE9380102F060FD219021990846179129
:1038F00002F0B7FD324A334BCDE9180102F018FE51
:103900000022314BCDE91A0102F03AFBCDE91C014E
:1039100002F07AFDC1B28DF8391105E02BA0FCF759
:1039200065FC00218DF83E11DDE9360102F03CFD19
:10393000229022990846179102F093FD274A284BBE
:10394000CDE9180102F0F4FD0022264BCDE91A0161
:1039500002F022FFCDE91C0102F056FDC0B28DF845
:103960003A01DDE9340102F01FFD239023981790FE
:1039700002F077FD194A1A4BCDE9180102F0D8FD83
:103980000022184BCDE91A0102F006FFCDE91C0117
:1039900002F03AFDC0B28DF83B014E99519801609A
:1039A000BDF83C1181809DF83E11817155B000BD7C
:1039B0000000664000805640F6285C8FC2F5E83F64
:1039C000E17A14AE47E1F03F00804B40616E676CD6
:1039D00065206572726F720D0A0000007D3F355ED2
:1039E000BA49E83F00C06240042808D14FF0E02106
:1039F000096941F004014FF0E022116107E04FF046
:103A0000E021096921F004014FF0E02211617047C3
:103A100010B51348006840F00100114908600846DD
:103A20004068104908400E494860084600680E4941
:103A300008400B4908600846006820F480200860B0
:103A40000846406820F4FE0048604FF41F0088607C
:103A5000FEF772FE4FF000600449086010BD0000E0
:103A6000001002400000FFF8FFFFF6FE08ED00E046
:103A700021B1028842F08002028004E002884FF601
:103A80007F731A400280704721B1028842F0010220
:103A9000028004E002884FF6FE731A4002807047ED
:103AA00031B1B0F8442042F40042A0F8442005E0CF
:103AB000B0F84420C2F30E02A0F844207047000082
:103AC00070B5002400220023058C4FF6FE763540A9
:103AD0000584028C8388048B4FF68F752C40B51EAD
:103AE0002C400D882C43751E2A400D892A434D8891
:103AF0002A43144DA8420BD0134DA84208D0134DB1
:103B0000A84205D0124DA84202D0124DA84213D1AE
:103B10004FF6F7752A404D892A434FF6FB752A4028
:103B20008D882A434FF6FF652B404FF6FF552B40FB
:103B30008D892B43CD892B4383800483CD88858653
:103B4000028470BD002C014000340140004001405F
:103B500000440140004801400A460021018B4FF615
:103B6000F7731940114301837047000070B50024BA
:103B700000220023058C4FF6EF7635400584028C39
:103B80008388048B48F6FF752C404FF6FF452C4088
:103B90000D884FF6FF7606EA05252C434FF6DF75B4
:103BA0002A400D8906EA05152A434D8806EA0515BF
:103BB0002A43154DA84202D0144DA8421DD14FF6FC
:103BC0007F752A404D894FF6FF7606EA05152A4390
:103BD0004FF6BF752A408D8806EA05152A434FF631
:103BE000FF352B404FF2FF752B408D8906EA850586
:103BF0002B43CD8906EA85052B4383800483CD883A
:103C00000587028470BD0000002C01400034014093
:103C10000A460021018B4FF2FF7319404FF6FF73E4
:103C200003EA0223194301837047000070B50024A2
:103C300000220023058C4FF6FF6635400584028C78
:103C40008388848B4FF68F752C404FF6FC752C4083
:103C50000D882C434FF6FF552A400D894FF6FF760D
:103C600006EA05252A434D8806EA05252A43154D0F
:103C7000A84202D0144DA8421DD14FF2FF752A4030
:103C80004D894FF6FF7606EA05252A434FF6FF35A4
:103C90002A408D8806EA05252A434EF6FF752B40FB
:103CA0004DF6FF752B408D8906EA05152B43CD890E
:103CB00006EA05152B4383808483CD88858702849B
:103CC00070BD0000002C0140003401400A46002174
:103CD000818B4FF6F77319401143818370470000C1
:103CE00070B5002200230024058C4EF6FF76354087
:103CF0000584038C8488828B48F6FF752A404FF632
:103D0000FF452A400D884FF6FF7606EA05252A432F
:103D10004DF6FF752B400D8906EA05352B434D887E
:103D200006EA05352B430B4DA84202D00A4DA842A6
:103D300008D14BF6FF752C408D894FF6FF7606EAC9
:103D400085152C4384808283CD88A0F8405003845D
:103D500070BD0000002C0140003401400A460021E3
:103D6000818B4FF2FF7319404FF6FF7303EA022372
:103D70001943818370470021018041808180C18087
:103D8000018141818181C18170478186704781872E
:103D90007047A0F840107047002202881D4B9842DF
:103DA0000ED01D4B98420BD0B0F1804F08D01B4B6A
:103DB000984205D01A4B984202D01A4B984204D12F
:103DC0004FF68F731A404B881A43174B984207D00F
:103DD000164B984204D04FF6FF431A40CB881A4343
:103DE00002808B8883850B8803850A4B98420BD011
:103DF000094B984208D00E4B984205D00D4B984283
:103E000002D00D4B984201D10B7A038601238382A5
:103E100070470000002C01400034014000040040C5
:103E200000080040000C004000100040001400405A
:103E300000400140004401400048014010B540F2FC
:103E400025511D4800F04AF810B31B4800F002F954
:103E5000C4B21A48008800F40040C8B91748008866
:103E600000F4804060B10A2C03D000201349088080
:103E700020E01248008840F400401049088019E012
:103E80000D2C06D10D48008840F480400B49088075
:103E900010E00A480088C0F30D0009490C54074897
:103EA0000088401C0549088008460088C72801DDB5
:103EB0000020088010BD0000003801400C000020E8
:103EC0005000002021B1828942F40052828104E036
:103ED00082894DF6FF731A408281704770B50246A1
:103EE000002400230025002040F66A16B14200D1CC
:103EF00000BFC1F3421501F01F03012606FA03F3C8
:103F0000012D02D19689334006E0022D02D1168A96
:103F1000334001E0968A33400C12012606FA04F47D
:103F20001688344013B10CB1012000E0002070BDB0
:103F3000F0B50346002400260025002040F66A174D
:103F4000B94200D100BF1846C1F3421401F01F0668
:103F5000012707FA06F5012C01D10C3004E0022CF0
:103F600001D1103000E014301AB107682F43076008
:103F700002E00768AF430760F0BD00002DE9F0479D
:103F800086B005460E460024A24600BFA146002783
:103F9000B08900B100BF2F462C8A4CF6FF70044058
:103FA000F08804432C82AC894EF6F3100440B088AC
:103FB00031890843718908430443AC81AC8A4FF6C8
:103FC000FF400440B0890443AC8201A8FEF738FAF0
:103FD0001F48874202D1DDF810A001E0DDF80CA0F7
:103FE000A88900F4004040B10AEBCA0000EB0A10B7
:103FF00031684900B0FBF1F807E00AEBCA0000EBBA
:104000000A1031688900B0FBF1F86420B8FBF0F0C9
:1040100004012009642101FB1089A88900F40040F3
:1040200040B1322000EBC900B0FBF1F000F0070016
:10403000044308E0322000EB09106421B0FBF1F0EA
:1040400000F00F0004432C8106B0BDE8F0870000AB
:104050000038014001468888C0F3080070474900D5
:1040600050EAC12018BF04204A0D18BF40F00100DB
:1040700040F2FF72B2EB515F08BF40F0020001282E
:1040800008BF0520704700002DE9F74F144694B093
:104090000021C4E902111599079121F00045C94991
:1040A0008D4206DC1599C4E9000117B00020BDE877
:1040B000F08FC549DFF814A3A9423CDD0799C44E2F
:1040C0000029C44FC44A1599534619DD02F056FC25
:1040D000554506D0C14AC24B02F050FCC4E900016C
:1040E0000AE04FF0D352BE4B02F048FC32463B464A
:1040F00002F044FCC4E9000117B00120BDE8F08FD4
:1041000001F03EFF554506D0B44AB54B01F038FFEB
:10411000C4E900010AE04FF0D352B14B01F030FF87
:1041200032463B4601F02CFFC4E9000117B04FF0C6
:10413000FF30BDE8F08FAB49A942159978DB21F03B
:10414000004183468846A84AA84B02F0F1F90022B4
:10415000A74B01F015FF02F027F9099002F081F951
:1041600006460F469C4A534602F0E2F943465A4639
:1041700002F012FB80468A46984A994B30463946EF
:1041800002F0D6F92A0D01250B924246534602F061
:1041900003FB032DC4E9000139D00B98C1F30A5188
:1041A000401A05EB45111139814230DA9148C34676
:1041B000784400EB0510CDF80CA00C90D0E900235A
:1041C0003046394602F0B4F902460B460491069097
:1041D0005846039902F0D2FB80468A4602460B46B7
:1041E0005846039902F0CAFB049B069A02F0C6FBEC
:1041F00083460C9803913946D0E90223304602F0F9
:1042000097F95A46039B02F0B9FB6D1CBDE707986E
:104210000028A2BF099817B0BDE8F08F616881F04F
:1042200000416160099817B04042BDE8F08FFFE798
:1042300084461598C1F31301C0F30A50A0F2F5307B
:104240004FEA601800F01F06C6F12000139000200E
:104250000690079041F4801E05206D4676B1664AAF
:1042600008EB00017A4452F8213002EB8101B3409F
:104270004A68139922FA01F1194305E05F4908EBF6
:104280000002794451F82210A1FB0E27A1FB0C1368
:104290001A449A4234BF0123002303EB070A05EBBB
:1042A0008003D3E901B70F448F4234BF01210021BD
:1042B00093448B4411B1934502D903E0934501D255
:1042C000012100E00021C3E901B7514445F8201065
:1042D000011EA0F10100C1DC0298059F00F1005011
:1042E000800F12900298DDE90356800002F0B9F8C1
:1042F000834628460D9102F0CBF86FF01D0202F0C4
:104300008AFFCDE90E01304602F0C2F86FF03D029F
:1043100002F081FF80468A46384602F0B9F86FF015
:104320005D0202F078FF074642465346119101F0C4
:1043300027FEDDE90E2301F023FE5A460D9B01F016
:104340001FFE00250E465A4628460D9B02F016FB1E
:10435000DDE90E2302F012FB4246534602F00EFB4B
:104360003A46119B02F018FADFF898A0244A534607
:1043700002F0DEF807468846234A244B3146284699
:1043800002F0D6F83A46434601F0FAFD0746884661
:104390004FF0A84253463146284602F0C9F83A4643
:1043A000434601F0EDFD159A12F0004F04D0129A29
:1043B00081F0004152421292C4E90001129817B0F4
:1043C000BDE8F08FFB21E93F7CD90240FB21F93F9A
:1043D0007370032E8A19A33B000040543163621AA4
:1043E00061B4D03DFB21394183C8C96D305FE43FE2
:1043F0000000E03FEC320000683200004A3200006A
:10440000182D4454FB21F93D3326A611460B113CCF
:104410002DE9FF4D21F0004807460C46B8F1795FC1
:1044200008DA01F0C1FF002801BF0020324904B0C2
:10443000BDE8F08D3A4623461046194602F078F85A
:10444000054602462D480E460B460621784400F0EC
:104450005DF82A46334602F06BF8DDE90223824616
:104460008B463846214602F063F804460F46524612
:104470005B462846314602F05BF822463B4602F096
:104480007DFA07468A464FF0FF322846314602F051
:10449000C2FE1B4A90450ADA3A46534602F06EFACB
:1044A00004B00022BDE8F04D134B02F075B9154A77
:1044B0004245A8BFA8F500154FF00004B8BF124D43
:1044C00022462B4602F05AFA0646884622462B46DA
:1044D0000020094902F052FA04460D463A46534676
:1044E0003046414602F04AFA04B022462B46BDE867
:1044F000F04D02F051B900000000F03F183000000C
:104500003333D33F0000E93F0000D23F2DE9F041B3
:104510004F1E00EBC7010446D1E9000115461E46B7
:1045200037F006020DD02A46334602F001F87F1E0E
:1045300004EBC703D3E9002301F022FD37F00602A4
:10454000F1D1022F25D0042F13D0062F18BFBDE8BC
:10455000F0812A46334601F0EBFFD4E90A2301F04B
:104560000FFD2A46334601F0E3FFD4E9082301F0AA
:1045700007FD2A46334601F0DBFFD4E9062301F0AC
:10458000FFFC2A46334601F0D3FFD4E9042301F0AF
:10459000F7FC2A46334601F0CBFFD4E9022301F0B1
:1045A000EFFC2A46334601F0C3FFD4E90023BDE8FF
:1045B000F04101F0E5BC00002DE9FF4D054621F07A
:1045C000004084B00C46B0F1795F0BDA2846FFF763
:1045D00046FD042808BF00F07FF8284608B02146B1
:1045E000BDE8F08D2A460B46104601F0A1FF0646B5
:1045F0000F462A46234601F09BFF804626488A46FE
:1046000032463B4605217844FFF780FF83461098E9
:10461000029160B3214A224B4046514601F088FF87
:10462000CDE900015A4640465146029B01F080FF09
:1046300082468846DDE906014FF0FF3202F0EBFDCD
:104640005246434602F09AF932463B4601F070FF6B
:10465000DDE9062302F092F9DDE9002302F08EF98C
:1046600008B02A462346BDE8F04D02F095B80B4647
:104670005A463046394601F05BFF084A084B01F0C4
:104680007FFC4246534601F053FF08B02A462346BA
:10469000BDE8F04D01F074BC5E2F00004955555542
:1046A0005555C5BF002213461046014901F024BDEF
:1046B0000000F03F012202F0AEBD01F061BC00221B
:1046C00013461046114601F017BD40F2013200209A
:1046D0004FF0E04102F09FBD024A0020110702F0B6
:1046E0009ABD000001FDFFFF00BF70472DE9F04DAE
:1046F0000546DFF8388221F000408D4F82B00C462D
:10470000404520DBA0EB080129430BD089498842B2
:1047100001DC10D17DB102B028462146BDE8F04D44
:10472000FFF7C8BF002CC7BF0020014682483946AA
:1047300002B0BDE8F08D0120FBF7DDFD02B0BDE861
:10474000F04DFFF7BCBF7D49884244DA7C49814285
:10475000A1BF79487B4902B0BDE8F08D2A462346C7
:104760001046194601F0E4FE8346024676480E469E
:104770000B4606217844FFF7C9FE5A46334601F03E
:10478000D7FE074671488A465A4633460421784484
:10479000FFF7BCFE5A46334601F0CAFE00224346EC
:1047A00001F0EEFB02460B463846514601F0A4FCF0
:1047B0002A46234601F0BCFE654A664B01F0ECFF39
:1047C0002A46234601F0E8FF02B05B4ABDE8F04DFF
:1047D0005C4B01F0E1BF002C4FF000024BDA464683
:1047E00043462846214601F0CBFB4FF0FF3202F052
:1047F00012FD0446024658480D460B4606217844F1
:10480000FFF784FE22462B4601F092FE8046534875
:104810008A4622462B4604217844FFF777FE22463B
:104820002B4601F085FE0022334601F0A9FB064627
:104830008B462046294601F0D7FA04460D463246FB
:104840005B464046514601F057FC22462B4601F09C
:104850006FFE3F4A3F4B02F091F822462B4601F093
:104860008FFB012202F0D7FC02B03B46BDE8F04DC1
:10487000314A01F091BF2D4B2846214601F08CFFB3
:104880004FF0FF3202F0C7FC05460E4601F0ACFACD
:1048900000270C4680463A460B4601F071FB8246E3
:1048A0008B463A4623461046194601F041FE2A46F9
:1048B000334601F071FF52465B4601F01DFC824613
:1048C00027488B462A46334606217844FFF71EFECA
:1048D0002A46334601F02CFECDE9000121482A4644
:1048E000334604217844FFF711FE2A46334601F08F
:1048F0001FFE00220D4B01F043FB02460B46DDE993
:10490000000101F0F9FB4246234601F011FE524638
:104910005B4601F035FB3A46234601F031FB02B01D
:104920000122BDE8F04D02F076BC00000000F03F2F
:10493000FB2109400000F07F182D44540000E03FA7
:104940000000603CFB21F93F302B0000462B0000AB
:10495000075C143326A6913CA62A0000BC2A00005E
:10496000DA290000F02900002DE9F04D8D4F21F0EB
:10497000004A86B005460C46BA452ADBAAEB07007A
:1049800028430AD08848824501DC1AD1CDB106B04F
:104990002846BDE8F04DFFF78DBE844A844B28467B
:1049A00001F0C6FD07460E46824A834B2846214643
:1049B00001F0BEFD06B03A463346BDE8F04D01F0C9
:1049C000DFBA0120FBF797FC06B0BDE8F04DFFF71A
:1049D00076BE7A48824542DABAF1795F0BDA284628
:1049E000FFF73DFB042808BFFFF776FE284606B018
:1049F0002146BDE8F08D2A460B46104601F098FD91
:104A0000834602466E480E460B4606217844FFF761
:104A10007DFD5A46334601F08BFD804669488A4643
:104A20005A46334604217844FFF770FD5A46334610
:104A300001F07EFD00223B4601F0A2FA02460B4641
:104A40004046514601F058FB2A46234601F070FDCE
:104A500006B02A462346BDE8F04D01F091BA28463B
:104A600024F0004100223D463B4601F095FE4FF008
:104A7000FF3202F0D0FB0646024653480F460B4673
:104A800006217844FFF742FD32463B4601F050FDD7
:104A9000CDE900014D4832463B4604217844FFF7FA
:104AA00035FD32463B4601F043FD00222B4601F026
:104AB00067FA834602913046394601F095F98046FF
:104AC00043480D46504517DCDDE900015A46029B7C
:104AD00001F012FB42462B4601F02AFD42462B46CE
:104AE00001F04EFA012202F096FB304A304B01F001
:104AF00045FF304A304B4CE04FF0000A52460B461F
:104B0000404601F03DFACDE9031052462B461046CF
:104B1000194601F00DFD32463B4601F03DFEDDE950
:104B2000033201F0E9FA06460F46DDE900015A4674
:104B3000029B01F0E1FA834600910122304639469A
:104B400002F069FB194A1A4B01F026FE06460F4691
:104B500001224046294602F05EFB5A46009B01F0C6
:104B6000E7FC32463B4601F009FF06460F460122AC
:104B70005046294602F04FFB0E4DDFF858802A467A
:104B8000434601F009FE32463B4601F005FE2A4647
:104B9000434601F001FE002CD8BF81F0004106B071
:104BA000BDE8F08D0000F03F0000F07F075C14339B
:104BB00026A6913C182D4454FB21F93F0000E03F0C
:104BC000E8280000FE280000722800008828000065
:104BD0003333EF3FFB21E93F2DE9F84F04460D4603
:104BE00021F0004000917349814211DC72498842F2
:104BF00001DC06D12CB120462946BDE8F84FFFF76D
:104C000059BD6E48002DCCBF6D496E49BDE8F88F87
:104C10006D49814211DD6D498142D8BF4FF0FF36A9
:104C20006DDD20462946FFF71AFA042808BFFFF772
:104C300053FD20462946BDE8F88F6549654F25F0AC
:104C40000045814233DD6449814219DD0026324648
:104C50004FF080432046294601F092F980468A466B
:104C600001222046294602F0D6FA00223B4601F0F6
:104C700085FE4246534601F03FFA04460D463EE0AB
:104C800001260022BA463B462046294601F078F923
:104C900080460F46002253462046294601F06EFE0C
:104CA00042463B4601F028FA04460D4627E04B49B0
:104CB00081421BDDDFF828A1022600225346204650
:104CC000294601F035FC00223B4601F059F98046A7
:104CD0000F46002253462046294601F04FFE424629
:104CE0003B4601F009FA04460D4608E00326224639
:104CF0002B4600203B4901F0FFF904460D462246B1
:104D00002B461046194601F013FC8B46824602469C
:104D10000B4601F00DFC07460246334888460B4619
:104D200006217844FFF7F2FB52465B4601F000FC97
:104D300082462E488B463A46434605217844FFF783
:104D4000E5FB3A46434601F0F3FB02460B46002ED4
:104D5000504659460CDA01F013F922462B4601F071
:104D6000E7FB01B022462B46BDE8F04F01F014BD31
:104D700001F006F922462B4601F0DAFB1C4A7A4480
:104D800002EBC603D3E9002301F0F8FD22462B46CF
:104D900001F0F4FD174A7A4402EBC603D3E900237D
:104DA00001F0FAFC009A002AB8BF81F00041BDE88A
:104DB000F88F0000000010440000F07F182D4454CC
:104DC000FB21F93FFB21F9BF0000DC3F0000203E42
:104DD0000000F33F0000F03F0000E63F008003408A
:104DE0000000F83F0000F0BF8A26000048260000BF
:104DF000E6250000AE2500002DE9F04D9446CCF1EB
:104E0000000423F000464CEA0404524F46EAD474EE
:104E10009A46884621F00042BC4206D8454240EA04
:104E2000050442EAD474BC4204D9BDE8F04D6246A0
:104E3000FFF743BCAAF14055A5F17F6555EA0C0484
:104E40000BD0022404EAAA74434DDFF810E144EACF
:104E5000D87452EA000B04D00CE0BDE8F04DFFF727
:104E6000BBBE002C14BF012CBDE8F08D022C30D04D
:104E7000032C32D056EA0C0B0AD0BE4220D1BA42E3
:104E800009D126F0804622F080423346114617E0D1
:104E900000291ADB25E0DFF8C8B0FB44002C04BF72
:104EA000DBE90001BDE8F08D012C02BFDBE9000168
:104EB00081F00041BDE8F08D022C0AD0032C0CD00B
:104EC000BA4212D1B8F1000F0BDA23482549BDE8E8
:104ED000F08D28462449BDE8F08D28467146BDE88E
:104EE000F08D1D482149BDE8F08D921B12153C2A1A
:104EF000C4BF19481D490EDCBAF1000FBEBF12F144
:104F00003C0F0020014606DB624601F0F5F821F077
:104F10000041FFF761FE002C08BFBDE8F08D012CB9
:104F200004BF81F00041BDE8F08D114A114B022C05
:104F300007D001F023FD2A46BDE8F04D0A4B01F0F1
:104F40001DBD01F01BFD2A46BDE8F04D064B01F0EA
:104F500023BC00000000F07F182D4454FB2109C041
:104F6000FA250000FB21F9BFFB210940FB21F93F95
:104F7000075C143326A6A13CF8B505460C46284626
:104F800000F042F806460121FDF74AFAADF800406C
:104F900010208DF8030003208DF802006946284692
:104FA000FDF7B8F8F8BD00002DE9F84306460D46B8
:104FB00014469846304600F027F807460121FDF7D1
:104FC0002FFA1048844207D1204600F051F80746D6
:104FD0000121FDF725FA06E0204600F049F80746D2
:104FE0000121FDF70DFAADF8005018208DF80300EF
:104FF00003208DF8020069463046FDF78BF8BDE8C6
:10500000F8830000002C014001460020114A914223
:1050100001D104201CE0104A914201D1082017E080
:105020000E4A914201D1102012E00D4A914201D165
:1050300020200DE00B4A914201D1402008E00A4AAD
:10504000914201D1802003E0084A914200D18815A5
:105050007047000000080140000C014000100140B2
:105060000014014000180140001C014000200140D4
:1050700001460020094A914201D1C8140DE0B1F166
:10508000804F01D1012008E0054A914201D1022060
:1050900003E0044A914200D104207047002C0140F3
:1050A00000040040000800402DE9F04387B00746A7
:1050B000884615461C46DDE90E967EB90021284635
:1050C000FEF7E2FC41463846FFF756FF0022414614
:1050D0003846FDF7AAF807B0BDE8F08342F2107039
:1050E00086420DD100212846FEF7CEFC41463846C7
:1050F000FFF742FF012241463846FDF796F8EAE7FE
:1051000023462A4641463846FFF74EFFB0B2ADF877
:1051100014001FFA89F0ADF810000020ADF8160059
:10512000ADF812008DF8180004A92846FEF734FEE9
:105130006846FEF720FE6020ADF800000120ADF8C3
:1051400002000020ADF80600ADF80800ADF804003C
:10515000ADF80A00ADF80C00ADF80E00012C08D136
:1051600069462846FEF7ACFC08212846FEF7F4FC09
:105170001FE0022C08D169462846FEF7F7FC0821FB
:105180002846FEF745FD14E0032C08D16946284661
:10519000FEF74CFD08212846FEF798FD09E0042C97
:1051A00007D169462846FEF79BFD08212846FEF7F1
:1051B000D5FD01212846FEF75BFC01212846FEF7BC
:1051C00063FC0648854202D00548854203D101218F
:1051D0002846FEF765FC00BF7DE70000002C01407B
:1051E0000034014010B54FF4A060FDF7A9F800F0BD
:1051F00061F84FF4E13000F029FE00F01BFE02A040
:10520000FAF7F4FF10BD000068656C6C6F20776FD3
:10521000726C640D0A00000000B5244B21F00042BE
:1052200087B09A42DCBF0022134629DD204B9A4208
:1052300008D140B94FF00100FBF75DF8FFF73FFAE6
:1052400007B000BD03DBFFF735FA07B000BD02AAC7
:10525000FEF71AFF10F0030104BF0DF1080C9CE8E3
:105260000F000DD0012001290ED0022914D00DF11C
:10527000080C00909CE80F00FFF79EF907B000BDF6
:10528000FFF7C6F807B000BD0DF1080C00909CE8D0
:105290000F00FFF791F905E00DF1080C9CE80F00F5
:1052A000FFF7B6F807B081F0004100BDFB21E93FF0
:1052B0000000F07F10B56FF00400FEF795FB0A4880
:1052C00000680A49B0FBF1F0094908700846007807
:1052D00000EB4001C1EBC0104FF6FF7101EAC000C6
:1052E0000449088010BD00002800002000127A0048
:1052F0000E000020100000200146114A12884A4387
:105300004FF0E0235A6100229A611A46126942F076
:1053100001021A6100BF4FF0E022106900F00102A3
:105320001AB100F48032002AF5D04FF0E022126961
:1053300022F001024FF0E0231A6100229A617047C7
:105340001000002000BF054A128802F04002002A27
:10535000F9D0C2B2014B1B1D1A80704700380140C2
:10536000FFF740FFFDF7ACF901E0FDF7D3F8FCE7EC
:105370002DE9F04D1D460C4698B0174621F000412E
:1053800023F00043002814BF4FF0010C4FF0000C35
:105390000CEB440CFE4A0CEB02064FEA620C66452D
:1053A0002BD33E0018BF012606EB45061644F94AEA
:1053B000964222D3F84A53EA070C02D0944205D110
:1053C00048B918B000201146BDE8F08D002808BF8C
:1053D0004FF0000C01D04FF0010C0CEB440212F521
:1053E000001F0AD8002F14BF4FF0010C4FF0000C23
:1053F0000CEB450212F5001F07D918B03A462B46B0
:105400002146BDE8F04DFFF758B90022DFF88CA324
:10541000002CB8BF534526DADFF884C36345A8BF24
:10542000022220DADFF870C39C451CDCDFF874C36D
:105430000CEB235CBCF1140F08DDCCF1340627FA29
:1054400006FC0CFA06F6BE420DD108E05FB9CCF1BD
:10545000140623FA06FC0CFA06F69E4203D10CF061
:105460000102C2F1020251EA000C19D1002D17DA33
:10547000002C18BF022A01D0012A07D00220FAF717
:105480003AFF18B0BDE8F04DFFF70CB90220FAF76B
:1054900032FFFFF707F918B081F00041BDE8F08D49
:1054A000B7F1000C6CD1534525D104F1804212F5BF
:1054B000801201BF00280020B74918B008BFBDE81E
:1054C000F08DB548884207DC002DA1BF6046294613
:1054D00018B0BDE8F08D07E0281E05DA80F0004125
:1054E00018B06046BDE8F08DAF497944D1E90001BC
:1054F00018B0BDE8F08DDFF8A0C2634525D1002DBE
:105500001FDA19B1514512D1D8B909E0002840F08D
:10551000EC82A24A214618B062F31E01BDE8F08D6C
:105520000020214618B060F31E01BDE8F08D08DAB6
:1055300018B02346BDE8F04D02460020614600F059
:10554000DBBD18B02146BDE8F08D514518DAB5F144
:10555000804F0DD0A5F1005CBCF1FF5C10D1B4F11F
:10556000000C0DDB18B06146BDE8F04D00F03CBC0E
:10557000234618B00246BDE8F04D194600F0D8BFEA
:10558000060024F0004C3BD1D9B1514533D1002C59
:1055900006DD002DA1BF0020514618B0BDE8F08DFA
:1055A000002C01DD002D1BDB002C13DA002D11DB9C
:1055B000012A4FF0000014BF78497C4918B0BDE8BB
:1055C000F08D022A18BF002C0AD0012A08D1002C25
:1055D00006DA0AE0002CB8BF002D11DA012A04D047
:1055E000002018B00146BDE8F08D18B000204FF043
:1055F0000041BDE8F08DA1F14050B0F17F601AD0BC
:10560000012000EBE47050EA020421D0624C521EEB
:105610004FF0000B104304BF4FF0000B644C654883
:1056200083427CDD644A654893421FDD884217DB74
:10563000002D25DB37E0002C00DA4AB1022A0CBF2E
:1056400001204FF0FF3018B0BDE8F04D00F009BF69
:105650000120FAF750FE18B0BDE8F04DFFF72FB863
:105660004D4A8A4202DC002D0ADC1CE0814202DA4B
:10567000002D18DA04E0484B994220DD002D12DDA0
:105680000220FAF738FEFFF720F805460E46002202
:1056900053465846214600F04BFF18B066F31E01F2
:1056A0002846BDE8F08D0220FAF725FEFFF714F832
:1056B0000A46214618B062F31E01BDE8F08D0022B3
:1056C0003046614601F05AF980460E466FF00102FD
:1056D00001F0A1FD4FF05532394B01F05DF8424623
:1056E000334600F025FF0022364B01F055F8824684
:1056F0004246334604911046194600F019FF5246BF
:10570000049B00F015FF8A4600904FF0C0422E4BDC
:105710004046314600F00CFF2C4A2B4B00E027E0BE
:10572000CDE906015146009800F002FF8246019142
:10573000274A284B4046314600F0FAFE5246019B6C
:1057400001F01CF982460B4602460591DDE906018F
:1057500000F016FCDDE9062300268846304601F0FD
:105760000DF95246059B01F017F8024600F07EB98C
:105770000020B1F5801F07DA35223046614601F07E
:105780004AFD06466FF0340000EB215024E0000093
:10579000FFFF1F00FFFF0F000000F03F0000F07F41
:1057A0000000404301FCFFFFAA1F00000000F0FFC3
:1057B0000000F0BF0000E0410000F043FFFFEF3FBA
:1057C0005555D53F0000E03F4715F73FFE822B655A
:1057D00044DF5DF80BAE543EA0F2FF300190C1F300
:1057E000130040F07F6141F040510291FE49884230
:1057F000D8BF002004DDFD498142C8BF012001DD82
:105800000D9008E000200D900198401C0190029836
:10581000A0F5801002900299F54878440B910D99FB
:1058200000EBC100D0E900230F9330460A920B9998
:1058300001F0A4F8CDE90601DDE90A2130460F9B0D
:1058400000F09EFB02460B460020EA4900F054FCA3
:10585000059102460B460090DDE9060100F068FE66
:105860001490E5488A464FF0000878440299006891
:1058700012904FF0005040EA61010D980F9B01EB30
:10588000804000F5002109910A9A129801F076F8FB
:1058900032460B9B00F080FF4246534600F048FE24
:1058A0000646029140465146099B129A00F040FE7E
:1058B000DDE9062300F070FF3246029B01F05EF83E
:1058C000059B009A00F034FE0091149A0490534610
:1058D0001046194600F02CFE06460246C7480B4605
:1058E000029106217844FEF711FECDE90510029BD6
:1058F00032461046194600F01BFEDDE9053200F085
:1059000017FE05910646534640461946149A00F084
:1059100037FB009B049A00F00BFE3246059B00F01B
:105920002FFBCDE90510424653461046194600F0BC
:10593000FFFD0022B24B02910A9000F021FBDDE94D
:10594000053200F01DFB0E464246AD4B404601F0CD
:1059500015F8029B0A9A01F011F8DDE9053200F012
:105960001BFF424602910A9033461046514600F012
:10597000DFFDCDE906015346149A02990A9800F01A
:10598000D7FD8A460290334642460099049800F0BB
:10599000CFFD5346029A00F0F3FA82460B460246C8
:1059A0000591DDE9060100F0EBFADDE906230020B0
:1059B0008846064600F0E2FF5246059B00F0ECFEEA
:1059C000824609914FF060428E4B3046414600F0CE
:1059D000AFFD049006918C4A8A4B5046099900F01D
:1059E000A7FD82460291894A894B3046414600F024
:1059F0009FFD5246029B00F0C3FA864B7B440D9AF2
:105A000003EBC203D3E9002300F0BAFA0E9007912A
:105A1000019800F026FD0591DDE9061382460E9AF5
:105A2000049800F0ADFA7C4A7A440D9B02EBC30364
:105A3000D3E900230093029200F0A2FA5246059B9C
:105A400000F09EFA0026884652463046059B00F03C
:105A500095FF009B029A00F091FF069B049A00F0CC
:105A60008DFF079B0E9A00F097FE024600200B4622
:105A700002903846294600F05BFD824601912B4694
:105A800038461946029A00F079FF3246434600F044
:105A90004FFD5246019B00F073FA07468A46324694
:105AA00043462946029800F043FD05460E463A4615
:105AB000534600F065FA594A8846914221DBA8EB2B
:105AC000020353EA000210D12A46334600F056FF83
:105AD000CDE90401524A534B3846514600F050FA82
